{"abi":[{"type":"constructor","inputs":[{"name":"_ipfsCID","type":"string","internalType":"string"}],"stateMutability":"nonpayable"},{"type":"function","name":"approve","inputs":[{"name":"to","type":"address","internalType":"address"},{"name":"tokenId","type":"uint256","internalType":"uint256"}],"outputs":[],"stateMutability":"nonpayable"},{"type":"function","name":"balanceOf","inputs":[{"name":"owner","type":"address","internalType":"address"}],"outputs":[{"name":"","type":"uint256","internalType":"uint256"}],"stateMutability":"view"},{"type":"function","name":"burn","inputs":[{"name":"_human","type":"address","internalType":"address"}],"outputs":[],"stateMutability":"nonpayable"},{"type":"function","name":"createCredential","inputs":[{"name":"_human","type":"address","internalType":"address"},{"name":"_merkleroot","type":"address","internalType":"address"}],"outputs":[],"stateMutability":"nonpayable"},{"type":"function","name":"deleteCredential","inputs":[{"name":"_merkleroot","type":"address","internalType":"address"}],"outputs":[],"stateMutability":"nonpayable"},{"type":"function","name":"getApproved","inputs":[{"name":"tokenId","type":"uint256","internalType":"uint256"}],"outputs":[{"name":"","type":"address","internalType":"address"}],"stateMutability":"view"},{"type":"function","name":"getCredentialOwner","inputs":[{"name":"_merkleroot","type":"address","internalType":"address"}],"outputs":[{"name":"","type":"address","internalType":"address"}],"stateMutability":"view"},{"type":"function","name":"getCredentials","inputs":[{"name":"_human","type":"address","internalType":"address"}],"outputs":[{"name":"","type":"address[]","internalType":"address[]"}],"stateMutability":"view"},{"type":"function","name":"getHuman","inputs":[{"name":"_human","type":"address","internalType":"address"}],"outputs":[{"name":"","type":"tuple","internalType":"struct OMID.Human","components":[{"name":"id","type":"address","internalType":"address"},{"name":"verified","type":"bool","internalType":"bool"},{"name":"created","type":"uint256","internalType":"uint256"},{"name":"updated","type":"uint256","internalType":"uint256"}]}],"stateMutability":"view"},{"type":"function","name":"hasCredential","inputs":[{"name":"_human","type":"address","internalType":"address"}],"outputs":[{"name":"","type":"bool","internalType":"bool"}],"stateMutability":"view"},{"type":"function","name":"hasHuman","inputs":[{"name":"_human","type":"address","internalType":"address"}],"outputs":[{"name":"","type":"bool","internalType":"bool"}],"stateMutability":"view"},{"type":"function","name":"isApprovedForAll","inputs":[{"name":"owner","type":"address","internalType":"address"},{"name":"operator","type":"address","internalType":"address"}],"outputs":[{"name":"","type":"bool","internalType":"bool"}],"stateMutability":"view"},{"type":"function","name":"isVerified","inputs":[{"name":"_human","type":"address","internalType":"address"}],"outputs":[{"name":"","type":"bool","internalType":"bool"}],"stateMutability":"view"},{"type":"function","name":"mint","inputs":[{"name":"_human","type":"address","internalType":"address"},{"name":"_verified","type":"bool","internalType":"bool"}],"outputs":[],"stateMutability":"nonpayable"},{"type":"function","name":"name","inputs":[],"outputs":[{"name":"","type":"string","internalType":"string"}],"stateMutability":"view"},{"type":"function","name":"operator","inputs":[],"outputs":[{"name":"","type":"address","internalType":"address"}],"stateMutability":"view"},{"type":"function","name":"ownerOf","inputs":[{"name":"tokenId","type":"uint256","internalType":"uint256"}],"outputs":[{"name":"","type":"address","internalType":"address"}],"stateMutability":"view"},{"type":"function","name":"safeTransferFrom","inputs":[{"name":"from","type":"address","internalType":"address"},{"name":"to","type":"address","internalType":"address"},{"name":"tokenId","type":"uint256","internalType":"uint256"}],"outputs":[],"stateMutability":"nonpayable"},{"type":"function","name":"safeTransferFrom","inputs":[{"name":"from","type":"address","internalType":"address"},{"name":"to","type":"address","internalType":"address"},{"name":"tokenId","type":"uint256","internalType":"uint256"},{"name":"data","type":"bytes","internalType":"bytes"}],"outputs":[],"stateMutability":"nonpayable"},{"type":"function","name":"setApprovalForAll","inputs":[{"name":"operator","type":"address","internalType":"address"},{"name":"approved","type":"bool","internalType":"bool"}],"outputs":[],"stateMutability":"nonpayable"},{"type":"function","name":"setIPFS","inputs":[{"name":"_ipfsCID","type":"string","internalType":"string"}],"outputs":[],"stateMutability":"nonpayable"},{"type":"function","name":"setOperator","inputs":[{"name":"_operator","type":"address","internalType":"address"}],"outputs":[],"stateMutability":"nonpayable"},{"type":"function","name":"supportsInterface","inputs":[{"name":"interfaceId","type":"bytes4","internalType":"bytes4"}],"outputs":[{"name":"","type":"bool","internalType":"bool"}],"stateMutability":"view"},{"type":"function","name":"symbol","inputs":[],"outputs":[{"name":"","type":"string","internalType":"string"}],"stateMutability":"view"},{"type":"function","name":"tokenURI","inputs":[{"name":"tokenId","type":"uint256","internalType":"uint256"}],"outputs":[{"name":"","type":"string","internalType":"string"}],"stateMutability":"view"},{"type":"function","name":"transferFrom","inputs":[{"name":"from","type":"address","internalType":"address"},{"name":"to","type":"address","internalType":"address"},{"name":"tokenId","type":"uint256","internalType":"uint256"}],"outputs":[],"stateMutability":"nonpayable"},{"type":"function","name":"update","inputs":[{"name":"_human","type":"address","internalType":"address"},{"name":"_verified","type":"bool","internalType":"bool"}],"outputs":[],"stateMutability":"nonpayable"},{"type":"function","name":"updateCredential","inputs":[{"name":"_human","type":"address","internalType":"address"},{"name":"_merkleroot","type":"address","internalType":"address"}],"outputs":[],"stateMutability":"nonpayable"},{"type":"event","name":"Approval","inputs":[{"name":"owner","type":"address","indexed":true,"internalType":"address"},{"name":"approved","type":"address","indexed":true,"internalType":"address"},{"name":"tokenId","type":"uint256","indexed":true,"internalType":"uint256"}],"anonymous":false},{"type":"event","name":"ApprovalForAll","inputs":[{"name":"owner","type":"address","indexed":true,"internalType":"address"},{"name":"operator","type":"address","indexed":true,"internalType":"address"},{"name":"approved","type":"bool","indexed":false,"internalType":"bool"}],"anonymous":false},{"type":"event","name":"BatchMetadataUpdate","inputs":[{"name":"_fromTokenId","type":"uint256","indexed":false,"internalType":"uint256"},{"name":"_toTokenId","type":"uint256","indexed":false,"internalType":"uint256"}],"anonymous":false},{"type":"event","name":"Burn","inputs":[{"name":"_human","type":"address","indexed":false,"internalType":"address"}],"anonymous":false},{"type":"event","name":"CreateCredential","inputs":[{"name":"_merkleroot","type":"address","indexed":false,"internalType":"address"}],"anonymous":false},{"type":"event","name":"DeleteCredential","inputs":[{"name":"_merkleroot","type":"address","indexed":false,"internalType":"address"}],"anonymous":false},{"type":"event","name":"MetadataUpdate","inputs":[{"name":"_tokenId","type":"uint256","indexed":false,"internalType":"uint256"}],"anonymous":false},{"type":"event","name":"Mint","inputs":[{"name":"_human","type":"address","indexed":false,"internalType":"address"}],"anonymous":false},{"type":"event","name":"Transfer","inputs":[{"name":"from","type":"address","indexed":true,"internalType":"address"},{"name":"to","type":"address","indexed":true,"internalType":"address"},{"name":"tokenId","type":"uint256","indexed":true,"internalType":"uint256"}],"anonymous":false},{"type":"event","name":"Update","inputs":[{"name":"_human","type":"address","indexed":false,"internalType":"address"}],"anonymous":false},{"type":"event","name":"UpdateCredential","inputs":[{"name":"_merkleroot","type":"address","indexed":false,"internalType":"address"}],"anonymous":false},{"type":"error","name":"ERC721IncorrectOwner","inputs":[{"name":"sender","type":"address","internalType":"address"},{"name":"tokenId","type":"uint256","internalType":"uint256"},{"name":"owner","type":"address","internalType":"address"}]},{"type":"error","name":"ERC721InsufficientApproval","inputs":[{"name":"operator","type":"address","internalType":"address"},{"name":"tokenId","type":"uint256","internalType":"uint256"}]},{"type":"error","name":"ERC721InvalidApprover","inputs":[{"name":"approver","type":"address","internalType":"address"}]},{"type":"error","name":"ERC721InvalidOperator","inputs":[{"name":"operator","type":"address","internalType":"address"}]},{"type":"error","name":"ERC721InvalidOwner","inputs":[{"name":"owner","type":"address","internalType":"address"}]},{"type":"error","name":"ERC721InvalidReceiver","inputs":[{"name":"receiver","type":"address","internalType":"address"}]},{"type":"error","name":"ERC721InvalidSender","inputs":[{"name":"sender","type":"address","internalType":"address"}]},{"type":"error","name":"ERC721NonexistentToken","inputs":[{"name":"tokenId","type":"uint256","internalType":"uint256"}]}],"bytecode":{"object":"0x60806040527f290decd9548b62a8d60345a988386fc84ba6bc95484008f6362f93160ef3e563600c557fc5d2460186f7233c927e7db2dcc703c0e500b653ca82273b7bfad8045d85a470600d5534801561005857600080fd5b5060405161258638038061258683398101604081905261007791610114565b6040518060400160405280600d81526020016c4f4d4e49204944454e5449545960981b8152506040518060400160405280600481526020016313d3525160e21b81525081600090816100c99190610269565b5060016100d68282610269565b5050600a80546001600160a01b0319163317905550600b6100f78282610269565b5050610327565b634e487b7160e01b600052604160045260246000fd5b60006020828403121561012657600080fd5b81516001600160401b0381111561013c57600080fd5b8201601f8101841361014d57600080fd5b80516001600160401b03811115610166576101666100fe565b604051601f8201601f19908116603f011681016001600160401b0381118282101715610194576101946100fe565b6040528181528282016020018610156101ac57600080fd5b60005b828110156101cb576020818501810151838301820152016101af565b50600091810160200191909152949350505050565b600181811c908216806101f457607f821691505b60208210810361021457634e487b7160e01b600052602260045260246000fd5b50919050565b601f82111561026457806000526020600020601f840160051c810160208510156102415750805b601f840160051c820191505b81811015610261576000815560010161024d565b50505b505050565b81516001600160401b03811115610282576102826100fe565b6102968161029084546101e0565b8461021a565b6020601f8211600181146102ca57600083156102b25750848201515b600019600385901b1c1916600184901b178455610261565b600084815260208120601f198516915b828110156102fa57878501518255602094850194600190920191016102da565b50848210156103185786840151600019600387901b60f8161c191681555b50505050600190811b01905550565b612250806103366000396000f3fe608060405234801561001057600080fd5b50600436106101c45760003560e01c806389afcb44116100f9578063c1c773f411610097578063d411d31311610071578063d411d313146104c1578063e985e9c5146104d4578063ea84bfee146104e7578063f359aafb146104fa57600080fd5b8063c1c773f414610488578063c87b56dd1461049b578063d19ac77a146104ae57600080fd5b8063ac2f84f9116100d3578063ac2f84f914610403578063b3ab15fb1461042f578063b88d4fde14610442578063b9209e331461045557600080fd5b806389afcb44146103d557806395d89b41146103e8578063a22cb465146103f057600080fd5b80632997b9cf11610166578063570ca73511610140578063570ca7351461036e5780636352211e1461038157806370a082311461039457806384270608146103b557600080fd5b80632997b9cf1461027f57806342842e0e146102925780635672dc5d146102a557600080fd5b8063095ea7b3116101a2578063095ea7b3146102315780631476f758146102465780632097d3fb1461025957806323b872dd1461026c57600080fd5b806301ffc9a7146101c957806306fdde03146101f1578063081812fc14610206575b600080fd5b6101dc6101d7366004611b6b565b61050d565b60405190151581526020015b60405180910390f35b6101f9610538565b6040516101e89190611bd8565b610219610214366004611beb565b6105ca565b6040516001600160a01b0390911681526020016101e8565b61024461023f366004611c20565b6105f3565b005b610244610254366004611c4a565b610602565b610244610267366004611c65565b61079f565b61024461027a366004611ca1565b6108ff565b6101dc61028d366004611c4a565b61098a565b6102446102a0366004611ca1565b6109d6565b6103306102b3366004611c4a565b604080516080810182526000808252602082018190529181018290526060810191909152506001600160a01b03908116600090815260076020908152604091829020825160808101845281549485168152600160a01b90940460ff1615159184019190915260018101549183019190915260020154606082015290565b6040516101e8919081516001600160a01b03168152602080830151151590820152604080830151908201526060918201519181019190915260800190565b600a54610219906001600160a01b031681565b61021961038f366004611beb565b6109f6565b6103a76103a2366004611c4a565b610a01565b6040519081526020016101e8565b6103c86103c3366004611c4a565b610a49565b6040516101e89190611cde565b6102446103e3366004611c4a565b610abf565b6101f9610be6565b6102446103fe366004611c65565b610bf5565b610219610411366004611c4a565b6001600160a01b039081166000908152600860205260409020541690565b61024461043d366004611c4a565b610c00565b610244610450366004611dba565b610c8b565b6101dc610463366004611c4a565b6001600160a01b0316600090815260076020526040902054600160a01b900460ff1690565b6101dc610496366004611c4a565b610ca3565b6101f96104a9366004611beb565b610cd0565b6102446104bc366004611e36565b610cde565b6102446104cf366004611e7f565b610d44565b6101dc6104e2366004611e7f565b610eee565b6102446104f5366004611c65565b610f1c565b610244610508366004611e7f565b61106b565b60006001600160e01b03198216632483248360e11b14806105325750610532826111f5565b92915050565b60606000805461054790611eb2565b80601f016020809104026020016040519081016040528092919081815260200182805461057390611eb2565b80156105c05780601f10610595576101008083540402835291602001916105c0565b820191906000526020600020905b8154815290600101906020018083116105a357829003601f168201915b5050505050905090565b60006105d58261121a565b506000828152600460205260409020546001600160a01b0316610532565b6105fe828233611253565b5050565b600c546001600160a01b038216600090815260076020908152604091829020600101548251918201520160405160208183030381529060405280519060200120036106685760405162461bcd60e51b815260040161065f90611eec565b60405180910390fd5b600c546001600160a01b038281166000908152600860209081526040918290206001015482519316908301520160405160208183030381529060405280519060200120036106f45760405162461bcd60e51b815260206004820152601960248201527843726564656e7469616c20646f65736e27742065786973747360381b604482015260640161065f565b600a546001600160a01b03163314806107175750600a546001600160a01b031633145b6107335760405162461bcd60e51b815260040161065f90611f1a565b6001600160a01b03811660008181526008602090815260409182902080546001600160a01b0319908116825560019091018054909116905590519182527fca456258c94cba2f3a7f255122d69a1e0c1fc70b80452e674341f1729d97074991015b60405180910390a150565b600c546001600160a01b038316600090815260076020908152604091829020600101548251918201520160405160208183030381529060405280519060200120146108225760405162461bcd60e51b81526020600482015260136024820152724f4d494420616c72656164792065786973747360681b604482015260640161065f565b600a546001600160a01b0316331461084c5760405162461bcd60e51b815260040161065f90611f77565b6001600160a01b038216600081815260076020908152604080832080546001600160a81b031916909417600160a01b861515021784554260019094019390935591516108b39261089f91600b9101611fb9565b604051602081830303815290604052611260565b6108be8260006112a9565b6040516001600160a01b03831681527f3c3284d117c92d0b1699230960384e794dcba184cc48ff114fe4fed20c9b0565906020015b60405180910390a15050565b6001600160a01b03821661092957604051633250574960e11b81526000600482015260240161065f565b600061093683833361130e565b9050836001600160a01b0316816001600160a01b031614610984576040516364283d7b60e01b81526001600160a01b038086166004830152602482018490528216604482015260640161065f565b50505050565b600c546001600160a01b038216600090815260076020908152604080832060010154815192830152919291015b6040516020818303038152906040528051906020012014159050919050565b6109f183838360405180602001604052806000815250610c8b565b505050565b60006105328261121a565b60006001600160a01b038216610a2d576040516322718ad960e21b81526000600482015260240161065f565b506001600160a01b031660009081526003602052604090205490565b6001600160a01b038116600090815260096020908152604091829020805483518184028101840190945280845260609392830182828015610ab357602002820191906000526020600020905b81546001600160a01b03168152600190910190602001808311610a95575b50505050509050919050565b600a546001600160a01b0316331480610ae25750600a546001600160a01b031633145b610afe5760405162461bcd60e51b815260040161065f90611f1a565b600c546001600160a01b03821660009081526007602090815260409182902060010154825191820152016040516020818303038152906040528051906020012003610b825760405162461bcd60e51b8152602060048201526014602482015273121d5b585b88191bd95cc81b9bdd08195e1a5cdd60621b604482015260640161065f565b6001600160a01b038116600081815260076020908152604080832080546001600160a81b0319168155600181018490556002019290925590519182527fe22de1457cb61fb61b60176bc4235a9abd19466126b46692bc14fc573f0992499101610794565b60606001805461054790611eb2565b6105fe338383611381565b600a546001600160a01b03163314610c695760405162461bcd60e51b815260206004820152602660248201527f4f6e6c79206f70657261746f722063616e206170706f696e74206e6577206f7060448201526532b930ba37b960d11b606482015260840161065f565b600a80546001600160a01b0319166001600160a01b0392909216919091179055565b610c968484846108ff565b6109843385858585611420565b600c546001600160a01b038216600090815260096020908152604080832090519293926109b79201612047565b50600060606105328261154b565b600a546001600160a01b03163314610d385760405162461bcd60e51b815260206004820181905260248201527f4f6e6c79206f70657261746f722063616e20736574206e657720697073434944604482015260640161065f565b600b6105fe82826120d2565b600c546001600160a01b03831660009081526007602090815260409182902060010154825191820152016040516020818303038152906040528051906020012003610da15760405162461bcd60e51b815260040161065f90611eec565b600c546001600160a01b03828116600090815260086020908152604091829020600101548251931690830152016040516020818303038152906040528051906020012014610e315760405162461bcd60e51b815260206004820152601960248201527f43726564656e7469616c20616c72656164792065786973747300000000000000604482015260640161065f565b600a546001600160a01b03163314610e5b5760405162461bcd60e51b815260040161065f90611f77565b6001600160a01b038181166000818152600860209081526040808320600180820180546001600160a01b0319908116881790915582548116978a169788179092558685526009845282852080549182018155855293839020909301805490931690931790915590519182527f5ba0c2af995828bdc566e268d88ac0f29802b0af249ebb1b0daa9b56a56ea6f891016108f3565b6001600160a01b03918216600090815260056020908152604080832093909416825291909152205460ff1690565b600a546001600160a01b03163314610f825760405162461bcd60e51b815260206004820152602360248201527f4f6e6c79206f70657261746f722063616e207570646174652068756d616e206460448201526261746160e81b606482015260840161065f565b600c546001600160a01b038316600090815260076020908152604091829020600101548251918201520160405160208183030381529060405280519060200120036110065760405162461bcd60e51b8152602060048201526014602482015273121d5b585b88191bd95cc81b9bdd08195e1a5cdd60621b604482015260640161065f565b6001600160a01b038216600081815260076020908152604091829020805460ff60a01b1916600160a01b861515021781554260029091015590519182527fd456720fd185d4060f5cea4d82775d2af95048c1e10f227ec35bae950a4be2a891016108f3565b600c546001600160a01b038316600090815260076020908152604091829020600101548251918201520160405160208183030381529060405280519060200120036110c85760405162461bcd60e51b815260040161065f90611eec565b600c546001600160a01b038281166000908152600860209081526040918290206001015482519316908301520160405160208183030381529060405280519060200120036111545760405162461bcd60e51b815260206004820152601960248201527843726564656e7469616c20646f65736e27742065786973747360381b604482015260640161065f565b600a546001600160a01b03163314806111775750600a546001600160a01b031633145b6111935760405162461bcd60e51b815260040161065f90611f1a565b6001600160a01b0382811660008181526008602090815260409182902060010180546001600160a01b03191694861694909417909355519081527fca456258c94cba2f3a7f255122d69a1e0c1fc70b80452e674341f1729d97074991016108f3565b60006001600160e01b03198216632483248360e11b148061053257506105328261165c565b6000818152600260205260408120546001600160a01b03168061053257604051637e27328960e01b81526004810184905260240161065f565b6109f183838360016116ac565b600082815260066020526040902061127882826120d2565b506040518281527ff8e1a15aba9398e019f0b49df1a4fde98ee17ae345cb5f6b5e2c27f5033e8ce7906020016108f3565b6001600160a01b0382166112d357604051633250574960e11b81526000600482015260240161065f565b60006112e18383600061130e565b90506001600160a01b038116156109f1576040516339e3563760e11b81526000600482015260240161065f565b6000828152600260205260408120546001600160a01b0316801561136d5760405162461bcd60e51b8152602060048201526016602482015275546f6b656e206e6f74207472616e7366657261626c6560501b604482015260640161065f565b6113788585856117b2565b50949350505050565b6001600160a01b0382166113b357604051630b61174360e31b81526001600160a01b038316600482015260240161065f565b6001600160a01b03838116600081815260056020908152604080832094871680845294825291829020805460ff191686151590811790915591519182527f17307eab39ab6107e8899845ad3d59bd9653f200f220920489ca2b5937696c31910160405180910390a3505050565b6001600160a01b0383163b1561154457604051630a85bd0160e11b81526001600160a01b0384169063150b7a0290611462908890889087908790600401612191565b6020604051808303816000875af192505050801561149d575060408051601f3d908101601f1916820190925261149a918101906121ce565b60015b611506573d8080156114cb576040519150601f19603f3d011682016040523d82523d6000602084013e6114d0565b606091505b5080516000036114fe57604051633250574960e11b81526001600160a01b038516600482015260240161065f565b805181602001fd5b6001600160e01b03198116630a85bd0160e11b1461154257604051633250574960e11b81526001600160a01b038516600482015260240161065f565b505b5050505050565b60606115568261121a565b506000828152600660205260408120805461157090611eb2565b80601f016020809104026020016040519081016040528092919081815260200182805461159c90611eb2565b80156115e95780601f106115be576101008083540402835291602001916115e9565b820191906000526020600020905b8154815290600101906020018083116115cc57829003601f168201915b50505050509050600061160760408051602081019091526000815290565b90508051600003611619575092915050565b81511561164b5780826040516020016116339291906121eb565b60405160208183030381529060405292505050919050565b611654846118ab565b949350505050565b60006001600160e01b031982166380ac58cd60e01b148061168d57506001600160e01b03198216635b5e139f60e01b145b8061053257506301ffc9a760e01b6001600160e01b0319831614610532565b80806116c057506001600160a01b03821615155b156117825760006116d08461121a565b90506001600160a01b038316158015906116fc5750826001600160a01b0316816001600160a01b031614155b801561170f575061170d8184610eee565b155b156117385760405163a9fbf51f60e01b81526001600160a01b038416600482015260240161065f565b81156117805783856001600160a01b0316826001600160a01b03167f8c5be1e5ebec7d5bd14f71427d1e84f3dd0314c0f7b2291e5b200ac8c7c3b92560405160405180910390a45b505b5050600090815260046020526040902080546001600160a01b0319166001600160a01b0392909216919091179055565b6000828152600260205260408120546001600160a01b03908116908316156117df576117df818486611920565b6001600160a01b0381161561181d576117fc6000856000806116ac565b6001600160a01b038116600090815260036020526040902080546000190190555b6001600160a01b0385161561184c576001600160a01b0385166000908152600360205260409020805460010190555b60008481526002602052604080822080546001600160a01b0319166001600160a01b0389811691821790925591518793918516917fddf252ad1be2c89b69c2b068fc378daa952ba7f163c4a11628f55a4df523b3ef91a4949350505050565b60606118b68261121a565b5060006118ce60408051602081019091526000815290565b905060008151116118ee5760405180602001604052806000815250611919565b806118f884611984565b6040516020016119099291906121eb565b6040516020818303038152906040525b9392505050565b61192b838383611a17565b6109f1576001600160a01b03831661195957604051637e27328960e01b81526004810182905260240161065f565b60405163177e802f60e01b81526001600160a01b03831660048201526024810182905260440161065f565b6060600061199183611a7a565b600101905060008167ffffffffffffffff8111156119b1576119b1611d2a565b6040519080825280601f01601f1916602001820160405280156119db576020820181803683370190505b5090508181016020015b600019016f181899199a1a9b1b9c1cb0b131b232b360811b600a86061a8153600a85049450846119e557509392505050565b60006001600160a01b038316158015906116545750826001600160a01b0316846001600160a01b03161480611a515750611a518484610eee565b806116545750506000908152600460205260409020546001600160a01b03908116911614919050565b60008072184f03e93ff9f4daa797ed6e38ed64bf6a1f0160401b8310611ab95772184f03e93ff9f4daa797ed6e38ed64bf6a1f0160401b830492506040015b6d04ee2d6d415b85acef81000000008310611ae5576d04ee2d6d415b85acef8100000000830492506020015b662386f26fc100008310611b0357662386f26fc10000830492506010015b6305f5e1008310611b1b576305f5e100830492506008015b6127108310611b2f57612710830492506004015b60648310611b41576064830492506002015b600a83106105325760010192915050565b6001600160e01b031981168114611b6857600080fd5b50565b600060208284031215611b7d57600080fd5b813561191981611b52565b60005b83811015611ba3578181015183820152602001611b8b565b50506000910152565b60008151808452611bc4816020860160208601611b88565b601f01601f19169290920160200192915050565b6020815260006119196020830184611bac565b600060208284031215611bfd57600080fd5b5035919050565b80356001600160a01b0381168114611c1b57600080fd5b919050565b60008060408385031215611c3357600080fd5b611c3c83611c04565b946020939093013593505050565b600060208284031215611c5c57600080fd5b61191982611c04565b60008060408385031215611c7857600080fd5b611c8183611c04565b915060208301358015158114611c9657600080fd5b809150509250929050565b600080600060608486031215611cb657600080fd5b611cbf84611c04565b9250611ccd60208501611c04565b929592945050506040919091013590565b602080825282518282018190526000918401906040840190835b81811015611d1f5783516001600160a01b0316835260209384019390920191600101611cf8565b509095945050505050565b634e487b7160e01b600052604160045260246000fd5b60008067ffffffffffffffff841115611d5b57611d5b611d2a565b50604051601f19601f85018116603f0116810181811067ffffffffffffffff82111715611d8a57611d8a611d2a565b604052838152905080828401851015611da257600080fd5b83836020830137600060208583010152509392505050565b60008060008060808587031215611dd057600080fd5b611dd985611c04565b9350611de760208601611c04565b925060408501359150606085013567ffffffffffffffff811115611e0a57600080fd5b8501601f81018713611e1b57600080fd5b611e2a87823560208401611d40565b91505092959194509250565b600060208284031215611e4857600080fd5b813567ffffffffffffffff811115611e5f57600080fd5b8201601f81018413611e7057600080fd5b61165484823560208401611d40565b60008060408385031215611e9257600080fd5b611e9b83611c04565b9150611ea960208401611c04565b90509250929050565b600181811c90821680611ec657607f821691505b602082108103611ee657634e487b7160e01b600052602260045260246000fd5b50919050565b60208082526014908201527348756d616e20646f65736e27742065786973747360601b604082015260600190565b6020808252603c908201527f4f6e6c79206f70657261746f727320616e64207573657273206861766520726960408201527f6768747320746f2064656c657465206120757365722773206461746100000000606082015260800190565b60208082526022908201527f4f6e6c79206f70657261746f722063616e20637265617465206e65772068756d60408201526130b760f11b606082015260800190565b66697066733a2f2f60c81b81526000808354611fd481611eb2565b600182168015611feb57600181146120065761203c565b60ff198316600787015260078215158302870101935061203c565b86600052602060002060005b8381101561203157815488820160070152600190910190602001612012565b505060078287010193505b509195945050505050565b602080825282548282018190526000848152918220906040840190835b81811015611d1f5783546001600160a01b0316835260019384019360209093019201612064565b601f8211156109f157806000526020600020601f840160051c810160208510156120b25750805b601f840160051c820191505b8181101561154457600081556001016120be565b815167ffffffffffffffff8111156120ec576120ec611d2a565b612100816120fa8454611eb2565b8461208b565b6020601f821160018114612134576000831561211c5750848201515b600019600385901b1c1916600184901b178455611544565b600084815260208120601f198516915b828110156121645787850151825560209485019460019092019101612144565b50848210156121825786840151600019600387901b60f8161c191681555b50505050600190811b01905550565b6001600160a01b03858116825284166020820152604081018390526080606082018190526000906121c490830184611bac565b9695505050505050565b6000602082840312156121e057600080fd5b815161191981611b52565b600083516121fd818460208801611b88565b835190830190612211818360208801611b88565b0194935050505056fea2646970667358221220a1f612bec23faa0e18e8a8bd1fc262323dd8dd40404e286e82768ab104ff1eb464736f6c634300081b0033","linkReferences":{}},"methodIdentifiers":{"approve(address,uint256)":"095ea7b3","balanceOf(address)":"70a08231","burn(address)":"89afcb44","createCredential(address,address)":"d411d313","deleteCredential(address)":"1476f758","getApproved(uint256)":"081812fc","getCredentialOwner(address)":"ac2f84f9","getCredentials(address)":"84270608","getHuman(address)":"5672dc5d","hasCredential(address)":"c1c773f4","hasHuman(address)":"2997b9cf","isApprovedForAll(address,address)":"e985e9c5","isVerified(address)":"b9209e33","mint(address,bool)":"2097d3fb","name()":"06fdde03","operator()":"570ca735","ownerOf(uint256)":"6352211e","safeTransferFrom(address,address,uint256)":"42842e0e","safeTransferFrom(address,address,uint256,bytes)":"b88d4fde","setApprovalForAll(address,bool)":"a22cb465","setIPFS(string)":"d19ac77a","setOperator(address)":"b3ab15fb","supportsInterface(bytes4)":"01ffc9a7","symbol()":"95d89b41","tokenURI(uint256)":"c87b56dd","transferFrom(address,address,uint256)":"23b872dd","update(address,bool)":"ea84bfee","updateCredential(address,address)":"f359aafb"},"id":38}